{
  "contractName": "Dice",
  "abi": [
    {
      "constant": true,
      "inputs": [],
      "name": "player2Escrow",
      "outputs": [
        {
          "name": "",
          "type": "uint256"
        }
      ],
      "payable": false,
      "stateMutability": "view",
      "type": "function"
    },
    {
      "constant": true,
      "inputs": [],
      "name": "player1Escrow",
      "outputs": [
        {
          "name": "",
          "type": "uint256"
        }
      ],
      "payable": false,
      "stateMutability": "view",
      "type": "function"
    },
    {
      "constant": true,
      "inputs": [],
      "name": "player2",
      "outputs": [
        {
          "name": "",
          "type": "address"
        }
      ],
      "payable": false,
      "stateMutability": "view",
      "type": "function"
    },
    {
      "constant": true,
      "inputs": [],
      "name": "player1",
      "outputs": [
        {
          "name": "",
          "type": "address"
        }
      ],
      "payable": false,
      "stateMutability": "view",
      "type": "function"
    },
    {
      "inputs": [],
      "payable": true,
      "stateMutability": "payable",
      "type": "constructor"
    },
    {
      "constant": false,
      "inputs": [],
      "name": "setupPlayer2",
      "outputs": [],
      "payable": true,
      "stateMutability": "payable",
      "type": "function"
    }
  ],
  "bytecode": "0x608060405260003411151561001357600080fd5b336000806101000a81548173ffffffffffffffffffffffffffffffffffffffff021916908373ffffffffffffffffffffffffffffffffffffffff1602179055503460028190555061025c806100696000396000f30060806040526004361061006d576000357c0100000000000000000000000000000000000000000000000000000000900463ffffffff168063329f86a814610072578063451e408a1461009d57806359a5f12d146100c857806367bf59541461011f578063d30895e414610129575b600080fd5b34801561007e57600080fd5b50610087610180565b6040518082815260200191505060405180910390f35b3480156100a957600080fd5b506100b2610186565b6040518082815260200191505060405180910390f35b3480156100d457600080fd5b506100dd61018c565b604051808273ffffffffffffffffffffffffffffffffffffffff1673ffffffffffffffffffffffffffffffffffffffff16815260200191505060405180910390f35b6101276101b2565b005b34801561013557600080fd5b5061013e61020b565b604051808273ffffffffffffffffffffffffffffffffffffffff1673ffffffffffffffffffffffffffffffffffffffff16815260200191505060405180910390f35b60035481565b60025481565b600160009054906101000a900473ffffffffffffffffffffffffffffffffffffffff1681565b6000341115156101c157600080fd5b33600160006101000a81548173ffffffffffffffffffffffffffffffffffffffff021916908373ffffffffffffffffffffffffffffffffffffffff16021790555034600381905550565b6000809054906101000a900473ffffffffffffffffffffffffffffffffffffffff16815600a165627a7a72305820f17054938b02a9f3e77cf2af91932ebbed996fd26d870802839fd2ea4d4cc32b0029",
  "source": "pragma solidity 0.4.24;\r\n\r\ncontract Dice {\r\n    address public player1;\r\n    address public player2;\r\n    uint256 public player1Escrow;\r\n    uint256 public player2Escrow;\r\n\r\n    constructor () public payable {\r\n        require(msg.value > 0);\r\n        player1 = msg.sender;\r\n        player1Escrow = msg.value;\r\n    }\r\n\r\n    function setupPlayer2() public payable {\r\n        require(msg.value > 0);\r\n        player2 = msg.sender;\r\n        player2Escrow = msg.value;\r\n    }\r\n}\r\n",
  "sourcePath": "C:\\Users\\merun\\Desktop\\dice\\2\\contracts\\Dice.sol",
  "compiler": {
    "name": "solc",
    "version": "0.4.24+commit.e67f0147.Emscripten.clang"
  },
  "schemaVersion": "2.0.1",
  "updatedAt": "2018-09-23T14:23:37.505Z"
}